:100000000C9462000C948A000C948A000C948A0070
:100010000C948A000C948A000C948A000C948A0038
:100020000C948A000C948A000C948A000C948A0028
:100030000C948A000C948A000C948A000C948A0018
:100040000C9442050C948A000C9410050C94EA045C
:100050000C948A000C948A000C948A000C948A00F8
:100060000C948A000C948A000000000024002700F1
:100070002A0000000000250028002B0000000008D6
:10008000000201000003040700000000000000005F
:1000900000000000230026002900040404040404D6
:1000A0000404020202020202030303030303010227
:1000B00004081020408001020408102001020408F6
:1000C00010208C0511241FBECFEFD8E0DEBFCDBFBE
:1000D00011E0A0E0B1E0E0E3F3E102C005900D9291
:1000E000A635B107D9F722E0A6E5B1E001C01D921F
:1000F000AE30B207E1F710E0C2E6D0E004C02197CD
:10010000FE010E944F07C136D107C9F70E94D805EA
:100110000C9496090C9400008F929F92AF92BF921C
:10012000CF92DF92EF92FF92CF93DF93A0910302E1
:10013000882311F03A2F01C030E08091040290E052
:10014000880F991F80579F4FC0900902D0900A02D4
:10015000E0900B02F0900C0240E050E0BA01FC018C
:10016000C591D49128812A2323130FC04A015B0132
:100170002FEF821A920AA20AB20A4C155D056E058B
:100180007F0538F4B501A401EACF342F252FCB0128
:1001900004C030E020E080E090E0632F722FDF9118
:1001A000CF91FF90EF90DF90CF90BF90AF909F9056
:1001B0008F900895CF92DF92EF92FF920F931F934B
:1001C000CF93DF936C017A018B01C0E0D0E0CE15B4
:1001D000DF0589F0D8016D918D01D601ED91FC917B
:1001E0000190F081E02DC6010995892B11F47E0163
:1001F00002C02196ECCFC701DF91CF911F910F91E3
:10020000FF90EF90DF90CF900895FC01918D828D4B
:10021000981761F0828DDF01A80FB11D5D968C915A
:10022000928D9F5F9F73928F90E008958FEF9FEF65
:100230000895FC01918D828D981731F0828DE80F21
:10024000F11D858D90E008958FEF9FEF0895FC01DB
:10025000918D228D892F90E0805C9F4F821B9109A8
:100260008F73992708958FE591E00E94270121E07F
:10027000892B09F420E0822F0895FC01848DDF0191
:10028000A80FB11DA35ABF4F2C91848D90E0019609
:100290008F739927848FA689B7892C93A089B189F8
:1002A0008C9180648C93938D848D981306C0028802
:1002B000F389E02D80818F7D80830895EF92FF92F6
:1002C0000F931F93CF93DF93EC0181E0888F9B8D79
:1002D0008C8D981305C0E889F989808185FD24C03B
:1002E000F62E0B8D10E00F5F1F4F0F731127E02EBE
:1002F0008C8DE8120CC00FB607FCFACFE889F9899B
:10030000808185FFF5CFCE010E943D01F1CF8B8D1D
:10031000FE01E80FF11DE35AFF4FF0820B8FEA89CF
:10032000FB898081806207C0EE89FF896083E8894C
:10033000F98980818064808381E090E0DF91CF91B2
:100340001F910F91FF90EF900895CF93DF93EC01F1
:10035000888D8823C9F0EA89FB89808185FD05C0E5
:10036000A889B9898C9186FD0FC00FB607FCF5CF1F
:10037000808185FFF2CFA889B9898C9185FFEDCF67
:10038000CE010E943D01E7CFDF91CF91089580E03B
:1003900090E0892B29F00E94330181110C94000018
:1003A000089590E0FC01E458FF4F3491FC01E255C0
:1003B000FF4F2491FC01E656FF4FE491EE2309F430
:1003C0003BC0332339F1333091F038F43130A9F0A8
:1003D000323001F584B58F7D12C0373091F038305E
:1003E000A1F03430B9F4809180008F7D03C08091FA
:1003F00080008F77809380000DC084B58F7784BD97
:1004000009C08091B0008F7703C08091B0008F7DCC
:100410008093B000F0E0EE0FFF1FEE58FF4FA59164
:10042000B4918FB7F894EC91611103C020952E23FD
:1004300001C02E2B2C938FBF0895CF93DF9390E0B4
:10044000FC01E255FF4F2491FC01E656FF4F8491D9
:10045000882361F190E0880F991FFC01E859FF4F54
:10046000C591D491FC01EE58FF4FA591B491611153
:1004700009C09FB7F8948881209582238883EC91E6
:100480002E230BC0623061F49FB7F8943881822F1D
:10049000809583238883EC912E2B2C939FBF06C0DD
:1004A0008FB7F894E8812E2B28838FBFDF91CF91EF
:1004B00008953FB7F8948091570190915801A09109
:1004C0005901B0915A0126B5A89B05C02F3F19F0DC
:1004D0000196A11DB11D3FBFBA2FA92F982F8827C4
:1004E000820F911DA11DB11DBC01CD0142E0660F1F
:1004F000771F881F991F4A95D1F708958F929F9271
:10050000AF92BF92CF92DF92EF92FF926B017C018C
:100510000E9459024B015C01C114D104E104F104B1
:10052000F1F00E945902DC01CB0188199909AA094E
:10053000BB09883E9340A105B10570F321E0C21AC2
:10054000D108E108F10888EE880E83E0981EA11C0E
:10055000B11CC114D104E104F10419F7DDCFFF90FF
:10056000EF90DF90CF90BF90AF909F908F900895C5
:10057000CF92DF92EF92FF920F931F93CF93DF936F
:10058000CDB7DEB7C054D1400FB6F894DEBF0FBE72
:10059000CDBF2FB7F89480915B0190915C01A09141
:1005A0005D01B0915E012FBF40910502509106029E
:1005B00060910702709108028C019D01041B150BCC
:1005C000260B370BB901A801403D57406105710565
:1005D00018F480910D02BCC080930502909306022E
:1005E000A0930702B0930802109200021092FF013C
:1005F0001092FE011092FD011092FC0161E08091C9
:1006000001020E94D1016AEF70E080E090E00E9458
:100610007E0261E0809101020E941D0260E08091F3
:1006200001020E94D10164E170E080E090E00E944C
:100630007E02F89461E0809101020E94D1018BE971
:1006400090E00197F1F762E0809101020E941D02A3
:1006500083E290E00197F1F780E00E948C00672B25
:10066000682B692B21F410920D0278943EC081E032
:100670000E948C00672B682B692BA9F38E010F5FFA
:100680001F4F6E012FEBC21A2EEFD20A780180E0C5
:100690000E948C00F701608371838283938381E0E1
:1006A0000E948C00F7016483758386839783F8E04A
:1006B000EF0EF11CEC14FD0451F7789420E030E0CB
:1006C000F8014081518162817381C480D580E680C8
:1006D000F780411551056105710529F0C114D10458
:1006E000E104F10421F410920D0280E031C0F9011F
:1006F00083E0F595E7958A95E1F7E450FE4F808118
:10070000880F4C155D056E057F0508F481608083B8
:100710002F5F3F4F085F1F4F2832310589F6209128
:10072000000230E04091FC018091FD0190E0840FD7
:10073000911D4091FE01840F911D4091FF01840F96
:10074000911D99272817390771F681E080930D02D2
:10075000C05CDE4F0FB6F894DEBF0FBECDBFDF9199
:10076000CF911F910F91FF90EF90DF90CF90089560
:10077000009769F0FC0101900020E9F73197AF0183
:10078000481B590BBC018FE591E00C94DA0080E026
:1007900090E008958F929F92AF92BF920F931F9314
:1007A000CF93DF93CDB7DEB7A1970FB6F894DEBF36
:1007B0000FBECDBF19A2423008F44AE08E010F5D92
:1007C0001F4F842E912CA12CB12CA50194010E94C5
:1007D0002D07E62FB901CA0101501109EA3014F4BE
:1007E000E05D01C0E95CD801EC93232B242B252B81
:1007F00061F7C8010E94B803A1960FB6F894DEBF56
:100800000FBECDBFDF91CF911F910F91BF90AF90E1
:100810009F908F9008954F925F926F927F928F92E8
:100820009F92AF92BF92CF92DF92EF92FF926B01B5
:100830007C01B42E9B01AC010E948C09882319F025
:1008400080E191E027C026013701E89477F82FEF87
:100850003FEF4FE75FE7C301B2010E948C098111AE
:100860000DC02FEF3FEF4FE75FE7C301B2010E94DA
:10087000C20718161CF484E191E00CC02FEF3FEF83
:100880004FE75FE4C701B6010E941A09181684F405
:1008900088E191E0FF90EF90DF90CF90BF90AF9014
:1008A0009F908F907F906F905F904F900C94B803C3
:1008B0002FEF3FEF4FE75FECC701B6010E94C20781
:1008C00087FDE6CF20E030E0A901C701B6010E9414
:1008D000C20787FF11C0E0915F01F09160010190B4
:1008E000F081E02D6DE28FE591E009954C01F7FA7A
:1008F000F094F7F8F09402C0812C912CA12C60E0C8
:1009000070E080E09FE3AB1441F020E030E040E293
:1009100051E40E94C707A394F6CF9B01AC01C70125
:10092000B6010E9456072B013C010E9439086B0159
:100930007C010E9468089B01AC01C301B2010E94C6
:1009400055072B013C014AE0C701B6010E94CA03CA
:100950007C01E80CF91CBB2031F08CE191E00E9495
:10096000B803E80EF91EDB2CDD2021F120E030E099
:1009700040E251E4C301B2010E941F092B013C0176
:100980000E9439084B01A12CB12C4AE0C501B401E9
:100990000E94CA03E80EF91EC501B4010E9468084E
:1009A0009B01AC01C301B2010E9455072B013C0120
:1009B000DA94DACFC701FF90EF90DF90CF90BF902D
:1009C000AF909F908F907F906F905F904F90089521
:1009D0000E9491091F920F920FB60F9211242F932C
:1009E0003F934F935F936F937F938F939F93AF93B7
:1009F000BF93EF93FF938FE591E00E943D01FF913C
:100A0000EF91BF91AF919F918F917F916F915F9186
:100A10004F913F912F910F900FBE0F901F901895FF
:100A20001F920F920FB60F9211242F938F939F93C3
:100A3000EF93FF93E0916F01F09170018081E0915D
:100A40007501F091760182FD12C09081809178014C
:100A50008F5F8F7320917901821751F0E0917801B7
:100A6000F0E0E15AFE4F958F8093780101C08081BC
:100A7000FF91EF919F918F912F910F900FBE0F904B
:100A80001F9018951F920F920FB60F9211242F935B
:100A90003F938F939F93AF93BF9380915B0190910E
:100AA0005C01A0915D01B0915E013091560123E09F
:100AB000230F2D3720F40196A11DB11D05C026E896
:100AC000230F0296A11DB11D2093560180935B0157
:100AD00090935C01A0935D01B0935E0180915701FA
:100AE00090915801A0915901B0915A010196A11D10
:100AF000B11D8093570190935801A0935901B09371
:100B00005A01BF91AF919F918F913F912F910F907B
:100B10000FBE0F901F901895EFE5F1E0138212823F
:100B200088EE93E0A0E0B0E084839583A683B7834A
:100B300084E091E09183808385EC90E095878487C1
:100B400084EC90E09787868780EC90E0918B808B97
:100B500081EC90E0938B828B82EC90E0958B848B80
:100B600086EC90E0978B868B118E128E138E148EEE
:100B7000ACEFB1E015961C92159786E116968C9312
:100B80001697EEEAF0E0E4911796EC931797EAE9EE
:100B9000F0E0E4911896EC93189740E85EE360E08B
:100BA00070E01D964D935D936D937C9350970895DF
:100BB000789484B5826084BD84B5816084BD85B538
:100BC000826085BD85B5816085BD80916E00816044
:100BD00080936E00109281008091810082608093EA
:100BE00081008091810081608093810080918000EC
:100BF0008160809380008091B10084608093B10017
:100C00008091B00081608093B00080917A00846010
:100C100080937A0080917A00826080937A0080913C
:100C20007A00816080937A0080917A008068809356
:100C30007A001092C100E0916F01F091700182E0A2
:100C40008083E0916B01F0916C011082E0916D0165
:100C5000F0916E018FEC808310927701E091730127
:100C6000F091740186E08083E0917101F09172014E
:100C7000808180618083E0917101F09172018081B7
:100C800088608083E0917101F091720180818068B9
:100C90008083E0917101F091720180818F7D80836A
:100CA00062E0809101020E941D0280E398EFAFEFA5
:100CB000BFEF8093050290930602A0930702B093C2
:100CC00008020E94B8028823B1F1809102028B30A1
:100CD00041F188F18551823070F56091FC0170E03E
:100CE00080E090E00E94680820E030E040E853E4B3
:100CF0000E941F096B017C018091FD01682F70E04B
:100D000080E090E00E946A089B01AC01C701B60137
:100D10000E9456072DEC3CEC4CEC5DE30E941F0951
:100D200007C06091FC0170E080E090E00E946808DC
:100D30004B015C0106C0812C912C90ECA92E9FE701
:100D4000B92E0E94B802882309F457C0809102028C
:100D50008B3029F0E0F18551823058F038C0609135
:100D6000FE0170E080E090E00E9468086B017C0169
:100D700034C0C091FE016C2F6F7770E080E090E08E
:100D80000E946A0820E030E040E853E40E941F0916
:100D90006B017C018091FF01682F70E080E090E0A2
:100DA0000E946A089B01AC01C701B6010E94560768
:100DB0002DEC3CEC4CEC5DE30E941F096B017C01C7
:100DC000C7FF0BC0F7FAF094F7F8F09406C0C12CF7
:100DD000D12C80ECE82E8FE7F82EA7019601C701F1
:100DE000B6010E948C09811108C0A5019401C501BA
:100DF000B4010E948C09882319F08EE191E024C08F
:100E000084E391E00E94B80342E0C501B4010E946E
:100E10000B048FE391E00E94B80383E491E00E9409
:100E2000B80326E636E646EE5FE3C701B6010E9448
:100E3000C70720E030E040E052E40E94560742E05D
:100E40000E940B0481E591E00E94B80381E391E0E8
:100E50000E94B8030E94C70134CFA1E21A2EAA1B38
:100E6000BB1BFD010DC0AA1FBB1FEE1FFF1FA2175A
:100E7000B307E407F50720F0A21BB30BE40BF50B57
:100E8000661F771F881F991F1A9469F760957095E0
:100E9000809590959B01AC01BD01CF010895EE0FA7
:100EA000FF1F0590F491E02D09945058BB27AA2705
:100EB0000E946D070C94E0080E94D20838F00E944E
:100EC000D90820F039F49F3F19F426F40C94CF0888
:100ED0000EF4E095E7FB0C94C908E92F0E94F10895
:100EE00058F3BA17620773078407950720F079F45F
:100EF000A6F50C9413090EF4E0950B2EBA2FA02D35
:100F00000B01B90190010C01CA01A0011124FF27B6
:100F1000591B99F0593F50F4503E68F11A16F040B1
:100F2000A22F232F342F4427585FF3CF46953795B0
:100F30002795A795F0405395C9F77EF41F16BA0B75
:100F4000620B730B840BBAF09150A1F0FF0FBB1F23
:100F5000661F771F881FC2F70EC0BA0F621F731F6C
:100F6000841F48F4879577956795B795F7959E3FC9
:100F700008F0B0CF9395880F08F09927EE0F97955A
:100F8000879508950E94A50808F481E008950E94BD
:100F9000DB070C94E0080E94D90858F00E94D208A0
:100FA00040F029F45F3F29F00C94C90851110C94CA
:100FB00014090C94CF080E94F10868F39923B1F347
:100FC000552391F3951B550BBB27AA27621773076F
:100FD000840738F09F5F5F4F220F331F441FAA1F03
:100FE000A9F335D00E2E3AF0E0E832D091505040BF
:100FF000E695001CCAF72BD0FE2F29D0660F771F6D
:10100000881FBB1F261737074807AB07B0E809F052
:10101000BB0B802DBF01FF2793585F4F3AF09E3FD7
:10102000510578F00C94C9080C9414095F3FE4F35F
:10103000983ED4F3869577956795B795F7959F5F1A
:10104000C9F7880F911D9695879597F90895E1E066
:10105000660F771F881FBB1F621773078407BA07C5
:1010600020F0621B730B840BBA0BEE1F88F7E09520
:1010700008950E94F90888F09F5798F0B92F992792
:10108000B751B0F0E1F0660F771F881F991F1AF073
:10109000BA95C9F714C0B13091F00E941309B1E0BC
:1010A00008950C941309672F782F8827B85F39F0BB
:1010B000B93FCCF3869577956795B395D9F73EF40C
:1010C00090958095709561957F4F8F4F9F4F0895B4
:1010D000E89409C097FB3EF49095809570956195D2
:1010E0007F4F8F4F9F4F9923A9F0F92F96E9BB2788
:1010F0009395F695879577956795B795F111F8CF04
:10110000FAF4BB0F11F460FF1BC06F5F7F4F8F4F6E
:101110009F4F16C0882311F096E911C0772321F064
:101120009EE8872F762F05C0662371F096E8862FFC
:1011300070E060E02AF09A95660F771F881FDAF753
:10114000880F9695879597F90895990F0008550F80
:10115000AA0BE0E8FEEF16161706E807F907C0F03D
:1011600012161306E407F50798F0621B730B840B45
:10117000950B39F40A2661F0232B242B252B21F41F
:1011800008950A2609F4A140A6958FEF811D811DBF
:10119000089597F99F6780E870E060E008959FEFF9
:1011A00080EC089500240A941616170618060906FE
:1011B000089500240A9412161306140605060895CD
:1011C000092E0394000C11F4882352F0BB0F40F455
:1011D000BF2B11F460FF04C06F5F7F4F8F4F9F4F95
:1011E000089557FD9058440F551F59F05F3F71F017
:1011F0004795880F97FB991F61F09F3F79F087957E
:101200000895121613061406551FF2CF4695F1DF06
:1012100008C0161617061806991FF1CF8695710596
:10122000610508940895E894BB2766277727CB01CA
:1012300097F908950E94A50808F48FEF08950E9479
:1012400032090C94E0080E94D20838F00E94D908B4
:1012500020F0952311F00C94C9080C94CF081124A8
:101260000C9414090E94F10870F3959FC1F3950F37
:1012700050E0551F629FF001729FBB27F00DB11D1A
:10128000639FAA27F00DB11DAA1F649F6627B00DAA
:10129000A11D661F829F2227B00DA11D621F739F93
:1012A000B00DA11D621F839FA00D611D221F749FA1
:1012B0003327A00D611D231F849F600D211D822FE8
:1012C000762F6A2F11249F5750409AF0F1F088230F
:1012D0004AF0EE0FFF1FBB1F661F771F881F91503C
:1012E0005040A9F79E3F510580F00C94C9080C941A
:1012F00014095F3FE4F3983ED4F38695779567959C
:10130000B795F795E7959F5FC1F7FE2B880F911D65
:101310009695879597F908950E94A508880B990BD3
:10132000089581E090E0F8940C949609F894FFCF2A
:10133000000000005E01DA00270105011901A50186
:101340006E616E00696E66006F7666002E00466103
:10135000696C656420746F20726561642044485430
:10136000000D0A0048756D69646974793A2000209F
:1013700025090054656D70657261747572653A2057
:0613800000202A460000D7
:107800000C94343C0C94513C0C94513C0C94513CE1
:107810000C94513C0C94513C0C94513C0C94513CB4
:107820000C94513C0C94513C0C94513C0C94513CA4
:107830000C94513C0C94513C0C94513C0C94513C94
:107840000C94513C0C94513C0C94513C0C94513C84
:107850000C94513C0C94513C0C94513C0C94513C74
:107860000C94513C0C94513C11241FBECFEFD8E036
:10787000DEBFCDBF11E0A0E0B1E0ECE9FFE702C060
:1078800005900D92A230B107D9F712E0A2E0B1E065
:1078900001C01D92AD30B107E1F70E942D3D0C945F
:1078A000CC3F0C94003C982F959595959595959582
:1078B000905D8F708A307CF0282F295A8091C0000B
:1078C00085FFFCCF9093C6008091C00085FFFCCF60
:1078D0002093C6000895282F205DF0CF982F809127
:1078E000C00085FFFCCF9093C6000895EF92FF92F1
:1078F0000F931F93EE24FF2487018091C00087FD22
:1079000017C00894E11CF11C011D111D81E4E8164B
:1079100082E4F8068FE0080780E0180770F3E09132
:107920000401F091050109958091C00087FFE9CF1E
:107930008091C6001F910F91FF90EF9008950E94D3
:10794000763C982F8091C00085FFFCCF9093C600B5
:1079500091362CF490330CF09053892F089597555D
:10796000892F08951F930E949F3C182F0E949F3CCF
:107970001295107F810F1F9108951F93182F882350
:1079800021F00E94763C1150E1F71F9108951F935A
:10799000182F0E94763C803249F0809103018F5F5E
:1079A000809303018530C1F01F9108958091C0003C
:1079B00085FFFCCF84E18093C6008091C00085FFE5
:1079C000FCCF1093C6008091C00085FFFCCF80E102
:1079D0008093C6001F910895E0910401F091050184
:1079E00009951F9108950E94763C803241F0809164
:1079F00003018F5F80930301853081F008958091AA
:107A0000C00085FFFCCF84E18093C6008091C00058
:107A100085FFFCCF80E18093C6000895E0910401CA
:107A2000F09105010995089540E951E08823A1F0FE
:107A30002D9A28EE33E0FA013197F1F721503040CA
:107A4000D1F72D9828EE33E0FA013197F1F7215064
:107A50003040D1F7815061F708953F924F925F9285
:107A60006F927F928F929F92AF92BF92CF92DF924E
:107A7000EF92FF920F931F93CF93DF93000080E16B
:107A80008093C4001092C50088E18093C10086E015
:107A90008093C2005098589A259A81E00E94143D24
:107AA00024E1F22E9EE1E92E85E9D82E0FE0C02ECA
:107AB00010E1B12EAA24A394B1E49B2EA6E58A2E50
:107AC000F2E57F2EE0E26E2E79E4572E63E5462E36
:107AD00050E5352E0E94763C8033B1F18133B9F107
:107AE000803409F46FC0813409F476C0823409F41B
:107AF00085C0853409F488C0803531F1823521F1A3
:107B0000813511F1853509F485C0863509F48DC0BC
:107B1000843609F496C0843709F403C1853709F423
:107B200072C1863709F466C0809103018F5F80932C
:107B30000301853079F6E0910401F0910501099582
:107B40000E94763C803351F60E94F33CC3CF0E94E2
:107B5000763C803249F78091C00085FFFCCFF092DF
:107B6000C6008091C00085FFFCCF9092C600809136
:107B7000C00085FFFCCF8092C6008091C00085FFC9
:107B8000FCCF7092C6008091C00085FFFCCF609250
:107B9000C6008091C00085FFFCCF5092C600809146
:107BA000C00085FFFCCF4092C6008091C00085FFD9
:107BB000FCCF3092C6008091C00085FFFCCFB09210
:107BC000C60088CF0E94763C863808F4BDCF0E945C
:107BD000763C0E94F33C7ECF0E94763C803809F4CC
:107BE0009CC0813809F40BC1823809F43CC1883942
:107BF00009F48FC080E00E94C73C6CCF84E10E94F2
:107C0000BD3C0E94F33C66CF85E00E94BD3C0E94D3
:107C1000F33C60CF0E94763C809306010E94763C44
:107C2000809307010E94F33C55CF0E94763C80333D
:107C300009F41DC183E00E94BD3C80E00E94C73C66
:107C400049CF0E94763C809309020E94763C809343
:107C5000080280910C028E7F80930C020E94763C79
:107C6000853409F415C18091080290910902892B8D
:107C700089F000E010E00E94763CF801E85FFE4FDA
:107C800080830F5F1F4F80910802909109020817AF
:107C9000190788F30E94763C803209F045CF809125
:107CA0000C0280FF01C16091060170910701660F0F
:107CB000771F7093070160930601A0910802B091AD
:107CC00009021097C9F0E8E0F1E09B01AD014E0F09
:107CD0005F1FF999FECF32BD21BD819180BDFA9A17
:107CE000F99A2F5F3F4FE417F50799F76A0F7B1F4B
:107CF00070930701609306018091C00085FFFCCF5F
:107D0000F092C6008091C00085FFFCCFB092C60003
:107D1000E1CE83E00E94C73CDDCE82E00E94C73CFA
:107D2000D9CE0E94763C809309020E94763C8093D3
:107D300008028091060190910701880F991F909386
:107D40000701809306010E94763C853409F4A6C0A1
:107D500080910C028E7F80930C020E94763C8032D0
:107D600009F0B8CE8091C00085FFFCCFF092C6002C
:107D7000609108027091090261157105B9F140E046
:107D800050E080910C02A82FA170B82FB27011C0E2
:107D9000BB2309F45CC0E0910601F0910701319624
:107DA000F0930701E09306014F5F5F4F46175707B7
:107DB000E8F4AA2369F3F999FECF209106013091E6
:107DC000070132BD21BDF89A90B58091C00085FFB2
:107DD000FCCF9093C6002F5F3F4F30930701209355
:107DE00006014F5F5F4F4617570718F38091C00099
:107DF00085FDE5CE8091C00085FFF8CFE0CE81E023
:107E00000E94C73C67CE0E94763C803209F08CCE3F
:107E10008091C00085FFFCCFF092C6008091C00029
:107E200085FFFCCFE092C6008091C00085FFFCCFAB
:107E3000D092C6008091C00085FFFCCFC092C600E2
:107E40008091C00085FFFCCFB092C60043CEE09188
:107E50000601F091070194918091C00085FFFCCF4D
:107E60009093C6009CCF80E10E94C73C33CE0E9415
:107E7000763C0E94763C182F0E94763C112309F430
:107E800083C0113009F484C08FE00E94C73C22CE29
:107E900080910C02816080930C02E5CE80910C02EF
:107EA000816080930C0259CF809107018823880F4D
:107EB000880B8A2180930B02809106019091070123
:107EC000880F991F90930701809306018091080203
:107ED00080FF09C080910802909109020196909359
:107EE000090280930802F894F999FECF1127E091D6
:107EF0000601F0910701C8E0D1E08091080290915D
:107F00000902103091F40091570001700130D9F34B
:107F100003E000935700E89500915700017001308D
:107F2000D9F301E100935700E89509901990009169
:107F3000570001700130D9F301E000935700E89534
:107F40001395103498F011270091570001700130FB
:107F5000D9F305E000935700E895009157000170B0
:107F60000130D9F301E100935700E895329602976A
:107F700009F0C7CF103011F00296E5CF112480919F
:107F8000C00085FFB9CEBCCE8EE10E94C73CA2CD19
:0C7F900085E90E94C73C9ECDF894FFCF0D
:027F9C00800063
:040000030000780081
:00000001FF
